:10000000D2B4D2B3D2B2D2B1D2B0C2B4C2B3C2B2FD
:10001000C2B1C2B0D2B5312320B01220B10F20B28C
:100020000C20B30920B406312311C080EB30B0128C
:1000300020B10F20B20C20B30920B406312311CF18
:1000400080EB30B01230B10F20B20C20B30920B4D5
:1000500006312311DE80EB30B01230B10F30B20C1C
:1000600020B30920B406312311ED80EB30B01230FB
:10007000B10F30B20C30B30920B406312311FC802B
:10008000EB30B01430B11130B20E30B30B30B408D5
:100090003123310BD2B580E920B00302001820B122
:1000A0000302001820B20302001820B30302001854
:1000B00020B40302001820B503020018C2B580D88E
:1000C000900400E4933143311AA3600280F522903A
:1000D000042BE4933143311AA3600280F52290048B
:1000E00007E4933143311AA3600280F52290040E95
:1000F000E4933143311AA3600280F522900413E4A3
:10010000933143311AA3600280F52290041BE493DB
:100110003143311AA3600280F52278FF7908D9FEB5
:10012000D8FA227480313474383134740E31347416
:1001300001313422311AF5A0C290C291D292311A03
:10014000C29222311AF5A0D290C291D292311AC233
:020150009222F9
:10040000564143414E5400515541544552004841D4
:100410004C4600332F3446554C4C0046554C4C2D21
:10042000535749544348204F46460046494C4C498F
:090430004E472053544152540080
:00000001FF
